{
  "_format": "hh-sol-artifact-1",
  "contractName": "MemeNFT",
  "sourceName": "contracts/MemeNFT.sol",
  "abi": [
    {
      "inputs": [],
      "stateMutability": "nonpayable",
      "type": "constructor"
    },
    {
      "anonymous": false,
      "inputs": [
        {
          "indexed": true,
          "internalType": "address",
          "name": "owner",
          "type": "address"
        },
        {
          "indexed": true,
          "internalType": "address",
          "name": "approved",
          "type": "address"
        },
        {
          "indexed": true,
          "internalType": "uint256",
          "name": "tokenId",
          "type": "uint256"
        }
      ],
      "name": "Approval",
      "type": "event"
    },
    {
      "anonymous": false,
      "inputs": [
        {
          "indexed": true,
          "internalType": "address",
          "name": "owner",
          "type": "address"
        },
        {
          "indexed": true,
          "internalType": "address",
          "name": "operator",
          "type": "address"
        },
        {
          "indexed": false,
          "internalType": "bool",
          "name": "approved",
          "type": "bool"
        }
      ],
      "name": "ApprovalForAll",
      "type": "event"
    },
    {
      "anonymous": false,
      "inputs": [
        {
          "indexed": true,
          "internalType": "address",
          "name": "from",
          "type": "address"
        },
        {
          "indexed": true,
          "internalType": "address",
          "name": "to",
          "type": "address"
        },
        {
          "indexed": true,
          "internalType": "uint256",
          "name": "tokenId",
          "type": "uint256"
        }
      ],
      "name": "Transfer",
      "type": "event"
    },
    {
      "inputs": [],
      "name": "_tokenIds",
      "outputs": [
        {
          "internalType": "uint256",
          "name": "_value",
          "type": "uint256"
        }
      ],
      "stateMutability": "view",
      "type": "function"
    },
    {
      "inputs": [
        {
          "internalType": "address",
          "name": "to",
          "type": "address"
        },
        {
          "internalType": "uint256",
          "name": "tokenId",
          "type": "uint256"
        }
      ],
      "name": "approve",
      "outputs": [],
      "stateMutability": "nonpayable",
      "type": "function"
    },
    {
      "inputs": [
        {
          "internalType": "address",
          "name": "owner",
          "type": "address"
        }
      ],
      "name": "balanceOf",
      "outputs": [
        {
          "internalType": "uint256",
          "name": "",
          "type": "uint256"
        }
      ],
      "stateMutability": "view",
      "type": "function"
    },
    {
      "inputs": [
        {
          "internalType": "uint256",
          "name": "tokenId",
          "type": "uint256"
        }
      ],
      "name": "getApproved",
      "outputs": [
        {
          "internalType": "address",
          "name": "",
          "type": "address"
        }
      ],
      "stateMutability": "view",
      "type": "function"
    },
    {
      "inputs": [
        {
          "internalType": "address",
          "name": "owner",
          "type": "address"
        },
        {
          "internalType": "address",
          "name": "operator",
          "type": "address"
        }
      ],
      "name": "isApprovedForAll",
      "outputs": [
        {
          "internalType": "bool",
          "name": "",
          "type": "bool"
        }
      ],
      "stateMutability": "view",
      "type": "function"
    },
    {
      "inputs": [
        {
          "internalType": "address",
          "name": "recipient",
          "type": "address"
        },
        {
          "internalType": "string",
          "name": "tokenURI",
          "type": "string"
        }
      ],
      "name": "mintNFT",
      "outputs": [
        {
          "internalType": "uint256",
          "name": "",
          "type": "uint256"
        }
      ],
      "stateMutability": "nonpayable",
      "type": "function"
    },
    {
      "inputs": [],
      "name": "name",
      "outputs": [
        {
          "internalType": "string",
          "name": "",
          "type": "string"
        }
      ],
      "stateMutability": "view",
      "type": "function"
    },
    {
      "inputs": [
        {
          "internalType": "uint256",
          "name": "tokenId",
          "type": "uint256"
        }
      ],
      "name": "ownerOf",
      "outputs": [
        {
          "internalType": "address",
          "name": "",
          "type": "address"
        }
      ],
      "stateMutability": "view",
      "type": "function"
    },
    {
      "inputs": [
        {
          "internalType": "address",
          "name": "from",
          "type": "address"
        },
        {
          "internalType": "address",
          "name": "to",
          "type": "address"
        },
        {
          "internalType": "uint256",
          "name": "tokenId",
          "type": "uint256"
        }
      ],
      "name": "safeTransferFrom",
      "outputs": [],
      "stateMutability": "nonpayable",
      "type": "function"
    },
    {
      "inputs": [
        {
          "internalType": "address",
          "name": "from",
          "type": "address"
        },
        {
          "internalType": "address",
          "name": "to",
          "type": "address"
        },
        {
          "internalType": "uint256",
          "name": "tokenId",
          "type": "uint256"
        },
        {
          "internalType": "bytes",
          "name": "_data",
          "type": "bytes"
        }
      ],
      "name": "safeTransferFrom",
      "outputs": [],
      "stateMutability": "nonpayable",
      "type": "function"
    },
    {
      "inputs": [
        {
          "internalType": "address",
          "name": "operator",
          "type": "address"
        },
        {
          "internalType": "bool",
          "name": "approved",
          "type": "bool"
        }
      ],
      "name": "setApprovalForAll",
      "outputs": [],
      "stateMutability": "nonpayable",
      "type": "function"
    },
    {
      "inputs": [
        {
          "internalType": "bytes4",
          "name": "interfaceId",
          "type": "bytes4"
        }
      ],
      "name": "supportsInterface",
      "outputs": [
        {
          "internalType": "bool",
          "name": "",
          "type": "bool"
        }
      ],
      "stateMutability": "view",
      "type": "function"
    },
    {
      "inputs": [],
      "name": "symbol",
      "outputs": [
        {
          "internalType": "string",
          "name": "",
          "type": "string"
        }
      ],
      "stateMutability": "view",
      "type": "function"
    },
    {
      "inputs": [
        {
          "internalType": "uint256",
          "name": "tokenId",
          "type": "uint256"
        }
      ],
      "name": "tokenURI",
      "outputs": [
        {
          "internalType": "string",
          "name": "",
          "type": "string"
        }
      ],
      "stateMutability": "view",
      "type": "function"
    },
    {
      "inputs": [
        {
          "internalType": "address",
          "name": "from",
          "type": "address"
        },
        {
          "internalType": "address",
          "name": "to",
          "type": "address"
        },
        {
          "internalType": "uint256",
          "name": "tokenId",
          "type": "uint256"
        }
      ],
      "name": "transferFrom",
      "outputs": [],
      "stateMutability": "nonpayable",
      "type": "function"
    }
  ],
  "bytecode": "0x60806040523480156200001157600080fd5b506040518060400160405280600781526020017f4d656d654e4654000000000000000000000000000000000000000000000000008152506040518060400160405280600381526020017f4d46540000000000000000000000000000000000000000000000000000000000815250816000908051906020019062000096929190620000b8565b508060019080519060200190620000af929190620000b8565b505050620001cd565b828054620000c69062000168565b90600052602060002090601f016020900481019282620000ea576000855562000136565b82601f106200010557805160ff191683800117855562000136565b8280016001018555821562000136579182015b828111156200013557825182559160200191906001019062000118565b5b50905062000145919062000149565b5090565b5b80821115620001645760008160009055506001016200014a565b5090565b600060028204905060018216806200018157607f821691505b602082108114156200019857620001976200019e565b5b50919050565b7f4e487b7100000000000000000000000000000000000000000000000000000000600052602260045260246000fd5b612abc80620001dd6000396000f3fe608060405234801561001057600080fd5b50600436106100f55760003560e01c806370a0823111610097578063b88d4fde11610066578063b88d4fde14610284578063c87b56dd146102a0578063e985e9c5146102d0578063eacabe1414610300576100f5565b806370a08231146101fc57806395d89b411461022c578063a22cb4651461024a578063aa46a40014610266576100f5565b8063095ea7b3116100d3578063095ea7b31461017857806323b872dd1461019457806342842e0e146101b05780636352211e146101cc576100f5565b806301ffc9a7146100fa57806306fdde031461012a578063081812fc14610148575b600080fd5b610114600480360381019061010f9190611c50565b610330565b6040516101219190612414565b60405180910390f35b610132610412565b60405161013f919061242f565b60405180910390f35b610162600480360381019061015d9190611ca2565b6104a4565b60405161016f91906123ad565b60405180910390f35b610192600480360381019061018d9190611c14565b610529565b005b6101ae60048036038101906101a99190611aba565b610641565b005b6101ca60048036038101906101c59190611aba565b6106a1565b005b6101e660048036038101906101e19190611ca2565b6106c1565b6040516101f391906123ad565b60405180910390f35b61021660048036038101906102119190611a55565b610773565b6040516102239190612651565b60405180910390f35b61023461082b565b604051610241919061242f565b60405180910390f35b610264600480360381019061025f9190611b84565b6108bd565b005b61026e6108d3565b60405161027b9190612651565b60405180910390f35b61029e60048036038101906102999190611b09565b6108df565b005b6102ba60048036038101906102b59190611ca2565b610941565b6040516102c7919061242f565b60405180910390f35b6102ea60048036038101906102e59190611a7e565b610a93565b6040516102f79190612414565b60405180910390f35b61031a60048036038101906103159190611bc0565b610b27565b6040516103279190612651565b60405180910390f35b60007f80ac58cd000000000000000000000000000000000000000000000000000000007bffffffffffffffffffffffffffffffffffffffffffffffffffffffff1916827bffffffffffffffffffffffffffffffffffffffffffffffffffffffff191614806103fb57507f5b5e139f000000000000000000000000000000000000000000000000000000007bffffffffffffffffffffffffffffffffffffffffffffffffffffffff1916827bffffffffffffffffffffffffffffffffffffffffffffffffffffffff1916145b8061040b575061040a82610b5f565b5b9050919050565b606060008054610421906128b1565b80601f016020809104026020016040519081016040528092919081815260200182805461044d906128b1565b801561049a5780601f1061046f5761010080835404028352916020019161049a565b820191906000526020600020905b81548152906001019060200180831161047d57829003601f168201915b5050505050905090565b60006104af82610bc9565b6104ee576040517f08c379a00000000000000000000000000000000000000000000000000000000081526004016104e5906125b1565b60405180910390fd5b6004600083815260200190815260200160002060009054906101000a900473ffffffffffffffffffffffffffffffffffffffff169050919050565b6000610534826106c1565b90508073ffffffffffffffffffffffffffffffffffffffff168373ffffffffffffffffffffffffffffffffffffffff1614156105a5576040517f08c379a000000000000000000000000000000000000000000000000000000000815260040161059c90612611565b60405180910390fd5b8073ffffffffffffffffffffffffffffffffffffffff166105c4610c35565b73ffffffffffffffffffffffffffffffffffffffff1614806105f357506105f2816105ed610c35565b610a93565b5b610632576040517f08c379a0000000000000000000000000000000000000000000000000000000008152600401610629906124f1565b60405180910390fd5b61063c8383610c3d565b505050565b61065261064c610c35565b82610cf6565b610691576040517f08c379a000000000000000000000000000000000000000000000000000000000815260040161068890612631565b60405180910390fd5b61069c838383610dd4565b505050565b6106bc838383604051806020016040528060008152506108df565b505050565b6000806002600084815260200190815260200160002060009054906101000a900473ffffffffffffffffffffffffffffffffffffffff169050600073ffffffffffffffffffffffffffffffffffffffff168173ffffffffffffffffffffffffffffffffffffffff16141561076a576040517f08c379a000000000000000000000000000000000000000000000000000000000815260040161076190612531565b60405180910390fd5b80915050919050565b60008073ffffffffffffffffffffffffffffffffffffffff168273ffffffffffffffffffffffffffffffffffffffff1614156107e4576040517f08c379a00000000000000000000000000000000000000000000000000000000081526004016107db90612511565b60405180910390fd5b600360008373ffffffffffffffffffffffffffffffffffffffff1673ffffffffffffffffffffffffffffffffffffffff168152602001908152602001600020549050919050565b60606001805461083a906128b1565b80601f0160208091040260200160405190810160405280929190818152602001828054610866906128b1565b80156108b35780601f10610888576101008083540402835291602001916108b3565b820191906000526020600020905b81548152906001019060200180831161089657829003601f168201915b5050505050905090565b6108cf6108c8610c35565b8383611030565b5050565b60078060000154905081565b6108f06108ea610c35565b83610cf6565b61092f576040517f08c379a000000000000000000000000000000000000000000000000000000000815260040161092690612631565b60405180910390fd5b61093b8484848461119d565b50505050565b606061094c82610bc9565b61098b576040517f08c379a000000000000000000000000000000000000000000000000000000000815260040161098290612591565b60405180910390fd5b60006006600084815260200190815260200160002080546109ab906128b1565b80601f01602080910402602001604051908101604052809291908181526020018280546109d7906128b1565b8015610a245780601f106109f957610100808354040283529160200191610a24565b820191906000526020600020905b815481529060010190602001808311610a0757829003601f168201915b505050505090506000610a356111f9565b9050600081511415610a4b578192505050610a8e565b600082511115610a80578082604051602001610a68929190612389565b60405160208183030381529060405292505050610a8e565b610a8984611210565b925050505b919050565b6000600560008473ffffffffffffffffffffffffffffffffffffffff1673ffffffffffffffffffffffffffffffffffffffff16815260200190815260200160002060008373ffffffffffffffffffffffffffffffffffffffff1673ffffffffffffffffffffffffffffffffffffffff16815260200190815260200160002060009054906101000a900460ff16905092915050565b6000610b3360076112b7565b6000610b3f60076112cd565b9050610b4b84826112db565b610b5581846114a9565b8091505092915050565b60007f01ffc9a7000000000000000000000000000000000000000000000000000000007bffffffffffffffffffffffffffffffffffffffffffffffffffffffff1916827bffffffffffffffffffffffffffffffffffffffffffffffffffffffff1916149050919050565b60008073ffffffffffffffffffffffffffffffffffffffff166002600084815260200190815260200160002060009054906101000a900473ffffffffffffffffffffffffffffffffffffffff1673ffffffffffffffffffffffffffffffffffffffff1614159050919050565b600033905090565b816004600083815260200190815260200160002060006101000a81548173ffffffffffffffffffffffffffffffffffffffff021916908373ffffffffffffffffffffffffffffffffffffffff160217905550808273ffffffffffffffffffffffffffffffffffffffff16610cb0836106c1565b73ffffffffffffffffffffffffffffffffffffffff167f8c5be1e5ebec7d5bd14f71427d1e84f3dd0314c0f7b2291e5b200ac8c7c3b92560405160405180910390a45050565b6000610d0182610bc9565b610d40576040517f08c379a0000000000000000000000000000000000000000000000000000000008152600401610d37906124d1565b60405180910390fd5b6000610d4b836106c1565b90508073ffffffffffffffffffffffffffffffffffffffff168473ffffffffffffffffffffffffffffffffffffffff161480610dba57508373ffffffffffffffffffffffffffffffffffffffff16610da2846104a4565b73ffffffffffffffffffffffffffffffffffffffff16145b80610dcb5750610dca8185610a93565b5b91505092915050565b8273ffffffffffffffffffffffffffffffffffffffff16610df4826106c1565b73ffffffffffffffffffffffffffffffffffffffff1614610e4a576040517f08c379a0000000000000000000000000000000000000000000000000000000008152600401610e41906125d1565b60405180910390fd5b600073ffffffffffffffffffffffffffffffffffffffff168273ffffffffffffffffffffffffffffffffffffffff161415610eba576040517f08c379a0000000000000000000000000000000000000000000000000000000008152600401610eb190612491565b60405180910390fd5b610ec583838361151d565b610ed0600082610c3d565b6001600360008573ffffffffffffffffffffffffffffffffffffffff1673ffffffffffffffffffffffffffffffffffffffff1681526020019081526020016000206000828254610f2091906127c7565b925050819055506001600360008473ffffffffffffffffffffffffffffffffffffffff1673ffffffffffffffffffffffffffffffffffffffff1681526020019081526020016000206000828254610f779190612740565b92505081905550816002600083815260200190815260200160002060006101000a81548173ffffffffffffffffffffffffffffffffffffffff021916908373ffffffffffffffffffffffffffffffffffffffff160217905550808273ffffffffffffffffffffffffffffffffffffffff168473ffffffffffffffffffffffffffffffffffffffff167fddf252ad1be2c89b69c2b068fc378daa952ba7f163c4a11628f55a4df523b3ef60405160405180910390a4505050565b8173ffffffffffffffffffffffffffffffffffffffff168373ffffffffffffffffffffffffffffffffffffffff16141561109f576040517f08c379a0000000000000000000000000000000000000000000000000000000008152600401611096906124b1565b60405180910390fd5b80600560008573ffffffffffffffffffffffffffffffffffffffff1673ffffffffffffffffffffffffffffffffffffffff16815260200190815260200160002060008473ffffffffffffffffffffffffffffffffffffffff1673ffffffffffffffffffffffffffffffffffffffff16815260200190815260200160002060006101000a81548160ff0219169083151502179055508173ffffffffffffffffffffffffffffffffffffffff168373ffffffffffffffffffffffffffffffffffffffff167f17307eab39ab6107e8899845ad3d59bd9653f200f220920489ca2b5937696c31836040516111909190612414565b60405180910390a3505050565b6111a8848484610dd4565b6111b484848484611522565b6111f3576040517f08c379a00000000000000000000000000000000000000000000000000000000081526004016111ea90612451565b60405180910390fd5b50505050565b606060405180602001604052806000815250905090565b606061121b82610bc9565b61125a576040517f08c379a0000000000000000000000000000000000000000000000000000000008152600401611251906125f1565b60405180910390fd5b60006112646111f9565b9050600081511161128457604051806020016040528060008152506112af565b8061128e846116b9565b60405160200161129f929190612389565b6040516020818303038152906040525b915050919050565b6001816000016000828254019250508190555050565b600081600001549050919050565b600073ffffffffffffffffffffffffffffffffffffffff168273ffffffffffffffffffffffffffffffffffffffff16141561134b576040517f08c379a000000000000000000000000000000000000000000000000000000000815260040161134290612571565b60405180910390fd5b61135481610bc9565b15611394576040517f08c379a000000000000000000000000000000000000000000000000000000000815260040161138b90612471565b60405180910390fd5b6113a06000838361151d565b6001600360008473ffffffffffffffffffffffffffffffffffffffff1673ffffffffffffffffffffffffffffffffffffffff16815260200190815260200160002060008282546113f09190612740565b92505081905550816002600083815260200190815260200160002060006101000a81548173ffffffffffffffffffffffffffffffffffffffff021916908373ffffffffffffffffffffffffffffffffffffffff160217905550808273ffffffffffffffffffffffffffffffffffffffff16600073ffffffffffffffffffffffffffffffffffffffff167fddf252ad1be2c89b69c2b068fc378daa952ba7f163c4a11628f55a4df523b3ef60405160405180910390a45050565b6114b282610bc9565b6114f1576040517f08c379a00000000000000000000000000000000000000000000000000000000081526004016114e890612551565b60405180910390fd5b80600660008481526020019081526020016000209080519060200190611518929190611879565b505050565b505050565b60006115438473ffffffffffffffffffffffffffffffffffffffff16611866565b156116ac578373ffffffffffffffffffffffffffffffffffffffff1663150b7a0261156c610c35565b8786866040518563ffffffff1660e01b815260040161158e94939291906123c8565b602060405180830381600087803b1580156115a857600080fd5b505af19250505080156115d957506040513d601f19601f820116820180604052508101906115d69190611c79565b60015b61165c573d8060008114611609576040519150601f19603f3d011682016040523d82523d6000602084013e61160e565b606091505b50600081511415611654576040517f08c379a000000000000000000000000000000000000000000000000000000000815260040161164b90612451565b60405180910390fd5b805181602001fd5b63150b7a0260e01b7bffffffffffffffffffffffffffffffffffffffffffffffffffffffff1916817bffffffffffffffffffffffffffffffffffffffffffffffffffffffff1916149150506116b1565b600190505b949350505050565b60606000821415611701576040518060400160405280600181526020017f30000000000000000000000000000000000000000000000000000000000000008152509050611861565b600082905060005b6000821461173357808061171c906128e3565b915050600a8261172c9190612796565b9150611709565b60008167ffffffffffffffff811115611775577f4e487b7100000000000000000000000000000000000000000000000000000000600052604160045260246000fd5b6040519080825280601f01601f1916602001820160405280156117a75781602001600182028036833780820191505090505b5090505b6000851461185a576001826117c091906127c7565b9150600a856117cf919061292c565b60306117db9190612740565b60f81b818381518110611817577f4e487b7100000000000000000000000000000000000000000000000000000000600052603260045260246000fd5b60200101907effffffffffffffffffffffffffffffffffffffffffffffffffffffffffffff1916908160001a905350600a856118539190612796565b94506117ab565b8093505050505b919050565b600080823b905060008111915050919050565b828054611885906128b1565b90600052602060002090601f0160209004810192826118a757600085556118ee565b82601f106118c057805160ff19168380011785556118ee565b828001600101855582156118ee579182015b828111156118ed5782518255916020019190600101906118d2565b5b5090506118fb91906118ff565b5090565b5b80821115611918576000816000905550600101611900565b5090565b600061192f61192a8461269d565b61266c565b90508281526020810184848401111561194757600080fd5b61195284828561286f565b509392505050565b600061196d611968846126cd565b61266c565b90508281526020810184848401111561198557600080fd5b61199084828561286f565b509392505050565b6000813590506119a781612a2a565b92915050565b6000813590506119bc81612a41565b92915050565b6000813590506119d181612a58565b92915050565b6000815190506119e681612a58565b92915050565b600082601f8301126119fd57600080fd5b8135611a0d84826020860161191c565b91505092915050565b600082601f830112611a2757600080fd5b8135611a3784826020860161195a565b91505092915050565b600081359050611a4f81612a6f565b92915050565b600060208284031215611a6757600080fd5b6000611a7584828501611998565b91505092915050565b60008060408385031215611a9157600080fd5b6000611a9f85828601611998565b9250506020611ab085828601611998565b9150509250929050565b600080600060608486031215611acf57600080fd5b6000611add86828701611998565b9350506020611aee86828701611998565b9250506040611aff86828701611a40565b9150509250925092565b60008060008060808587031215611b1f57600080fd5b6000611b2d87828801611998565b9450506020611b3e87828801611998565b9350506040611b4f87828801611a40565b925050606085013567ffffffffffffffff811115611b6c57600080fd5b611b78878288016119ec565b91505092959194509250565b60008060408385031215611b9757600080fd5b6000611ba585828601611998565b9250506020611bb6858286016119ad565b9150509250929050565b60008060408385031215611bd357600080fd5b6000611be185828601611998565b925050602083013567ffffffffffffffff811115611bfe57600080fd5b611c0a85828601611a16565b9150509250929050565b60008060408385031215611c2757600080fd5b6000611c3585828601611998565b9250506020611c4685828601611a40565b9150509250929050565b600060208284031215611c6257600080fd5b6000611c70848285016119c2565b91505092915050565b600060208284031215611c8b57600080fd5b6000611c99848285016119d7565b91505092915050565b600060208284031215611cb457600080fd5b6000611cc284828501611a40565b91505092915050565b611cd4816127fb565b82525050565b611ce38161280d565b82525050565b6000611cf4826126fd565b611cfe8185612713565b9350611d0e81856020860161287e565b611d1781612a19565b840191505092915050565b6000611d2d82612708565b611d378185612724565b9350611d4781856020860161287e565b611d5081612a19565b840191505092915050565b6000611d6682612708565b611d708185612735565b9350611d8081856020860161287e565b80840191505092915050565b6000611d99603283612724565b91507f4552433732313a207472616e7366657220746f206e6f6e20455243373231526560008301527f63656976657220696d706c656d656e74657200000000000000000000000000006020830152604082019050919050565b6000611dff601c83612724565b91507f4552433732313a20746f6b656e20616c7265616479206d696e746564000000006000830152602082019050919050565b6000611e3f602483612724565b91507f4552433732313a207472616e7366657220746f20746865207a65726f2061646460008301527f72657373000000000000000000000000000000000000000000000000000000006020830152604082019050919050565b6000611ea5601983612724565b91507f4552433732313a20617070726f766520746f2063616c6c6572000000000000006000830152602082019050919050565b6000611ee5602c83612724565b91507f4552433732313a206f70657261746f7220717565727920666f72206e6f6e657860008301527f697374656e7420746f6b656e00000000000000000000000000000000000000006020830152604082019050919050565b6000611f4b603883612724565b91507f4552433732313a20617070726f76652063616c6c6572206973206e6f74206f7760008301527f6e6572206e6f7220617070726f76656420666f7220616c6c00000000000000006020830152604082019050919050565b6000611fb1602a83612724565b91507f4552433732313a2062616c616e636520717565727920666f7220746865207a6560008301527f726f2061646472657373000000000000000000000000000000000000000000006020830152604082019050919050565b6000612017602983612724565b91507f4552433732313a206f776e657220717565727920666f72206e6f6e657869737460008301527f656e7420746f6b656e00000000000000000000000000000000000000000000006020830152604082019050919050565b600061207d602e83612724565b91507f45524337323155524953746f726167653a2055524920736574206f66206e6f6e60008301527f6578697374656e7420746f6b656e0000000000000000000000000000000000006020830152604082019050919050565b60006120e3602083612724565b91507f4552433732313a206d696e7420746f20746865207a65726f20616464726573736000830152602082019050919050565b6000612123603183612724565b91507f45524337323155524953746f726167653a2055524920717565727920666f722060008301527f6e6f6e6578697374656e7420746f6b656e0000000000000000000000000000006020830152604082019050919050565b6000612189602c83612724565b91507f4552433732313a20617070726f76656420717565727920666f72206e6f6e657860008301527f697374656e7420746f6b656e00000000000000000000000000000000000000006020830152604082019050919050565b60006121ef602983612724565b91507f4552433732313a207472616e73666572206f6620746f6b656e2074686174206960008301527f73206e6f74206f776e00000000000000000000000000000000000000000000006020830152604082019050919050565b6000612255602f83612724565b91507f4552433732314d657461646174613a2055524920717565727920666f72206e6f60008301527f6e6578697374656e7420746f6b656e00000000000000000000000000000000006020830152604082019050919050565b60006122bb602183612724565b91507f4552433732313a20617070726f76616c20746f2063757272656e74206f776e6560008301527f72000000000000000000000000000000000000000000000000000000000000006020830152604082019050919050565b6000612321603183612724565b91507f4552433732313a207472616e736665722063616c6c6572206973206e6f74206f60008301527f776e6572206e6f7220617070726f7665640000000000000000000000000000006020830152604082019050919050565b61238381612865565b82525050565b60006123958285611d5b565b91506123a18284611d5b565b91508190509392505050565b60006020820190506123c26000830184611ccb565b92915050565b60006080820190506123dd6000830187611ccb565b6123ea6020830186611ccb565b6123f7604083018561237a565b81810360608301526124098184611ce9565b905095945050505050565b60006020820190506124296000830184611cda565b92915050565b600060208201905081810360008301526124498184611d22565b905092915050565b6000602082019050818103600083015261246a81611d8c565b9050919050565b6000602082019050818103600083015261248a81611df2565b9050919050565b600060208201905081810360008301526124aa81611e32565b9050919050565b600060208201905081810360008301526124ca81611e98565b9050919050565b600060208201905081810360008301526124ea81611ed8565b9050919050565b6000602082019050818103600083015261250a81611f3e565b9050919050565b6000602082019050818103600083015261252a81611fa4565b9050919050565b6000602082019050818103600083015261254a8161200a565b9050919050565b6000602082019050818103600083015261256a81612070565b9050919050565b6000602082019050818103600083015261258a816120d6565b9050919050565b600060208201905081810360008301526125aa81612116565b9050919050565b600060208201905081810360008301526125ca8161217c565b9050919050565b600060208201905081810360008301526125ea816121e2565b9050919050565b6000602082019050818103600083015261260a81612248565b9050919050565b6000602082019050818103600083015261262a816122ae565b9050919050565b6000602082019050818103600083015261264a81612314565b9050919050565b6000602082019050612666600083018461237a565b92915050565b6000604051905081810181811067ffffffffffffffff82111715612693576126926129ea565b5b8060405250919050565b600067ffffffffffffffff8211156126b8576126b76129ea565b5b601f19601f8301169050602081019050919050565b600067ffffffffffffffff8211156126e8576126e76129ea565b5b601f19601f8301169050602081019050919050565b600081519050919050565b600081519050919050565b600082825260208201905092915050565b600082825260208201905092915050565b600081905092915050565b600061274b82612865565b915061275683612865565b9250827fffffffffffffffffffffffffffffffffffffffffffffffffffffffffffffffff0382111561278b5761278a61295d565b5b828201905092915050565b60006127a182612865565b91506127ac83612865565b9250826127bc576127bb61298c565b5b828204905092915050565b60006127d282612865565b91506127dd83612865565b9250828210156127f0576127ef61295d565b5b828203905092915050565b600061280682612845565b9050919050565b60008115159050919050565b60007fffffffff0000000000000000000000000000000000000000000000000000000082169050919050565b600073ffffffffffffffffffffffffffffffffffffffff82169050919050565b6000819050919050565b82818337600083830152505050565b60005b8381101561289c578082015181840152602081019050612881565b838111156128ab576000848401525b50505050565b600060028204905060018216806128c957607f821691505b602082108114156128dd576128dc6129bb565b5b50919050565b60006128ee82612865565b91507fffffffffffffffffffffffffffffffffffffffffffffffffffffffffffffffff8214156129215761292061295d565b5b600182019050919050565b600061293782612865565b915061294283612865565b9250826129525761295161298c565b5b828206905092915050565b7f4e487b7100000000000000000000000000000000000000000000000000000000600052601160045260246000fd5b7f4e487b7100000000000000000000000000000000000000000000000000000000600052601260045260246000fd5b7f4e487b7100000000000000000000000000000000000000000000000000000000600052602260045260246000fd5b7f4e487b7100000000000000000000000000000000000000000000000000000000600052604160045260246000fd5b6000601f19601f8301169050919050565b612a33816127fb565b8114612a3e57600080fd5b50565b612a4a8161280d565b8114612a5557600080fd5b50565b612a6181612819565b8114612a6c57600080fd5b50565b612a7881612865565b8114612a8357600080fd5b5056fea26469706673582212201c6430788d7eaec91b2e023c153f9856e92735a7932c9b943a4607a210971cfc64736f6c63430008000033",
  "linkReferences": {},
  "deployedLinkReferences": {}
}